:020000040000FA
:1000000018F09FE518F09FE518F09FE518F09FE5C0
:1000100018F09FE50000A0E1F0FF1FE518F09FE554
:100020005800000040000000482500004800000083
:100030004C000000000000005000000054000000D0
:10004000FEFFFFEAFEFFFFEAFEFFFFEAFEFFFFEA18
:10005000FEFFFFEAFEFFFFEA94009FE5AA10A0E37F
:100060005520A0E32430A0E3043080E50130A0E374
:10007000003080E50C1080E50C2080E5083090E52C
:10008000013B13E2FCFFFF0A0330A0E3003080E5F0
:100090000C1080E50C2080E558009FE50410A0E3DB
:1000A000041080E50210A0E3001080E548009FE501
:1000B000DBF021E300D0A0E1080040E2D7F021E32B
:1000C00000D0A0E1080040E2D1F021E300D0A0E19F
:1000D000080040E2D2F021E300D0A0E1030C40E2AE
:1000E000D3F021E300D0A0E1030C40E20C009FE537
:1000F00010FF2FE180C01FE000C01FE0C83C00409F
:1001000004010000000000EB2E0000EB2C008FE249
:10011000000C90E800A08AE000B08BE001704AE299
:100120000B005AE10000001A260000EB0F00BAE8AD
:1001300018E04FE2010013E303F0471013FF2FE133
:10014000B8250000D8250000102052E27800B02821
:100150007800A128FBFFFF8A822EB0E13000B02892
:100160003000A12800409045004081451EFF2FE14E
:100170000030B0E30040B0E30050B0E30060B0E313
:10018000102052E27800A128FCFFFF8A822EB0E105
:100190003000A128003081451EFF2FE101C08FE211
:1001A0001CFF2FE11FB5059886460FBC009C02B0CE
:1001B0007047000001C08FE21CFF2FE130B475468C
:1001C000AE4630BC704700009F0800EB0210A0E173
:1001D000F1FFFFEB1CC09FE50FC08CE001001CE3AA
:1001E0000DE08F120FE0A0011CFF2FE101C08FE294
:1001F0001CFF2FE102F05AF9A90300007847C0461E
:1002000003002DE9EAFFFFEB0300BDE8AE0800EBB9
:100210000C009FE50C109FE504209FE508309FE54A
:100220001EFF2FE1A8360040B0390040A83600403C
:1002300001002DE900204DE90000A0E104D04DE2CD
:100240000100BDE8004020E900E0A0E10100BDE8B8
:10025000FF7F4EE90000A0E13CE04EE200004FE1EC
:1002600001002EE94C009FE5000090E501002EE919
:1002700044009FE5001090E500E081E53C009FE52B
:100280000FE0A0E110FF2FE12C009FE5000090E5BA
:1002900000E090E51C009FE50200BEE8001080E54C
:1002A0000100BEE800F06FE1FF7FDEE80000A0E1A2
:1002B0003CE09EE504F05EE2C000004088000040A3
:1002C000E907000000205BE041004118624A515CF0
:1002D000002902D0012950D127E0410041185E4A8F
:1002E0008918897800290CD15C49896842008218F4
:1002F000594BD218537801229A409143574A916042
:1003000012E041004118544A8918897801290BD11B
:1003100052498968420082184F4BD2185378012203
:100320009A4011434D4A916028E0410041184A4AE1
:100330008918897800290CD14849896942008218B6
:10034000454BD218537801229A409143434A916118
:1003500012E041004118404A8918897801290BD1DF
:100360003E498969420082183B4BD21853780122DA
:100370009A401143394A916100E0C046C046401C92
:100380003749098888429FDB70470200002A02D063
:10039000012A0CD105E0314B1B68CB40D807C00FB8
:1003A00005E02E4B1B69CB40D807C00FC046C046A6
:1003B000704710B4002802D0012827D113E0002A8A
:1003C00007D1264BDB6801248C402343234CE36098
:1003D00008E0012A06D1214B5B6801248C402343AD
:1003E0001E4C636012E0002A07D11C4BDB6901241C
:1003F0008C402343194CE36108E0012A06D1174BD6
:100400005B6901248C402343144C6361C04610BCDB
:10041000704700281DD1134A1278002A0AD10F4ACA
:10042000526801238B401A430C4B5A6001220D4B3A
:100430001A700DE00B4A1278012A09D1074AD268D6
:1004400001238B401A43054BDA600022054B1A70DA
:10045000C046C0467047000002000040008002E035
:100460005C0000400000004082B0002568A00190C0
:100470006CA00090C04610210020FFF786FF04000A
:10048000012C0AD1002D08D10023821E01A96A483F
:10049000006801F0C6F90125EDE7002CEBD1012D34
:1004A000E9D100235A1E69466348006801F0B9F992
:1004B0000025E0E782B0002560A0019064A00090D4
:1004C000C04611210020FFF760FF0400012C0AD173
:1004D000002D08D10023821E01A95748006801F0B1
:1004E000A0F90125EDE7002CEBD1012DE9D1002386
:1004F0005A1E69465048006801F093F90025E0E76C
:1005000082B058A00190C04600235A1E01A94A4853
:10051000006801F086F9F7E782B0C0460022D243B6
:1005200001A94548006801F099FA1121019800F0ED
:1005300031F90A2000F00EFCF0E70020C046002050
:1005400000E0401CFF21F5318842F8DAF9E7C046A7
:10055000C046FEE77D20C0004749C86008004068EB
:100560000121084344494860704710B5E12040022A
:1005700000F0BEF8FFF7A6FEFFF7ECFF01203F49B1
:10058000087010BC08BC184784B0FFF7EEFF32209B
:100590003B4901220023009201910290C82239A117
:1005A0003D4800F033FA32203C49012200230092FA
:1005B00001910290C8223AA13E4800F027FA642037
:1005C0003D4901220023009201910290C8223BA1E3
:1005D000404800F01BFA14203F49012200230092FA
:1005E00001910290C8223DA1404800F00FFA00F0AE
:1005F000F2FBC046FEE720484068022108431E493E
:10060000486008004068022188431B4948607047E1
:10061000427574746F6E5F315F524953494E472083
:100620000A000000427574746F6E5F315F46414C82
:100630004C494E470A0000007C000040427574742B
:100640006F6E5F325F524953494E47200A000000E7
:10065000427574746F6E5F325F46414C4C494E4731
:100660000A000000706572696F64696320737472B8
:10067000696E67200A000000008000E000C11FE0F2
:1006800060000040427574746F6E5F315F4D6F6E35
:1006900069746F720000000069040000640000408B
:1006A000427574746F6E5F325F4D6F6E69746F72F6
:1006B00000000000B5040000680000405065726949
:1006C0006F6469635F5472616E736D69747465728F
:1006D00000000000010500006C00004055617274CC
:1006E0005F52656365697665720000001905000058
:1006F00070B505005A4800680121090408435849AB
:100700000860080000680121890408435449086012
:100710002E013100534801F0E5FE04005248007BF1
:1007200080210843504908730C70240A0C7107207B
:100730000872032008734814C068802188434B491D
:10074000C86008000069802108434849086148489A
:1007500048494860272048494860434800790321B8
:1007600008434149087170BC08BC18470100434860
:100770000078012809D10020404A107040480078D4
:10078000000600160870012070470020FCE7364A7A
:100790001070704770B505000C003A4800780028CA
:1007A00020D1002D1ED038490C7036490C70002322
:1007B00003E0E85C3549C8545B1CA342F9DB3149CE
:1007C0000A780978491E2F4E31702F490978891A05
:1007D0002E4A515C09060816FFF7D9FF012070BCAC
:1007E00008BC18470020FAE710B41F4A107A2EE020
:1007F0000207120F022A0BD0042A1CD0062A02D0AC
:100800000C2A20D116E0184A127D110609161BE0A9
:100810001C4A1278002A0CDD1A4A13781278521EEC
:10082000184C2270184A1278D21A184B9A5C0E4B48
:100830001A7009E0C0460C4A1278114B1A70012256
:100840000E4B1A7000E0C046C046074A107AC20735
:10085000D20F002ACCD00022044B1A6310BC704780
:1008600000C002E000879303000001E000F0FFFFFA
:100870003002000000F1FFFF00F2FFFF82000040A5
:10088000810000408400004083000040DC00004004
:1008900010B5002406E014216143F94A881800F0DD
:1008A0006BFE641C042CF6D3F64800F065FEF64897
:1008B00000F062FEF54800F05FFEF54800F05CFED7
:1008C000F048F4490860F048F349086010BC08BCDF
:1008D000184710B5040001F027FBF0480068401CE1
:1008E000EE490860EE480068002808D1EC48046032
:1008F0000800006801280ED1FFF7CAFF0BE0E948A5
:100900000068002807D1E6480068C06AE16A8842AA
:1009100001D8E3480460E4480068401CE2490860EC
:1009200008000068E063211DD94800F041FE01F095
:1009300006FBDC480068002807D0D9480068C06A78
:10094000E16A884201D201F0A9FE10BC08BC184738
:10095000FFB581B00E0017000C9CB900A522206BDA
:1009600001F02AFC781E8000216B08180090009886
:10097000C008C0000090002E11D0002508E0715D75
:10098000200034304155705D002800D102E06D1C1C
:10099000082DF4D3C04600213B20015502E0002180
:1009A000342001550A98042801D303200A900A989C
:1009B000E062201D00F0EDFD2000183000F0E9FDA0
:1009C000246104210A98081AA0616462002060640E
:1009D000A06400214C200155049A684603C801F028
:1009E0003BFA20600B98002801D00B98046005B0FA
:1009F000F0BC08BC184710B501F096FAAB48046883
:100A000001F09DFA200010BC08BC1847FFB585B066
:100A10001700B80001F0DFFA0600002E0BD05420BA
:100A200001F0D9FA0400002C01D0266304E0300064
:100A300001F026FB00E0002410982065002C15D062
:100A4000FFF7D9FF216D4018606000220EA803C88F
:100A50006B4613C303923A00089B05A803C8FFF72F
:100A600077FF2000FFF735FF012501E00025ED436A
:100A7000280009B0F0BC08BC184786490968096815
:100A8000002901D1012100E00021002904D000212A
:100A9000C943874A116006E07E490968C968C86889
:100AA000834A416811607047F8B500200090814882
:100AB000006800286CD17D480068451C7B480560B3
:100AC000002D0FD1734807687348006871490860AA
:100AD0007148076078480068401C77490860FFF754
:100AE000CCFFC0467248006885423FD3C046694883
:100AF00000680068002801D1012000E000200028E3
:100B000004D00020C0436A4908602EE061480068B4
:100B1000C068C4686668B54202D26548066024E0D1
:100B2000201D00F061FDA06A002803D020001830CD
:100B300000F05AFD5D49206D0968401860605F480B
:100B40000068006D5949096840185C4909684860A7
:100B5000211D4F4800F02CFD5149206D0968096D99
:100B60008842C4D201200090C1E7C0464C480068CA
:100B7000C06A1421484342490858012801D901207C
:100B800000904F480068002801D00120009004E048
:100B90004C480068401C4B4908600098F8BC08BCF1
:100BA000184770B50024002601F0BEF941480068DE
:100BB000401E4049086008000068002841D13748BD
:100BC000006800283DD016E03048C068C4682000A6
:100BD000183000F009FD201D00F006FD211D2C48F5
:100BE00000F0E6FC2E49E06A0968C96A884202D32F
:100BF00001203349086025480068002801D1012000
:100C000000E000200028DFD0002C01D0FFF735FFE6
:100C10002C480568002D0DD0C046FFF745FF002881
:100C200002D00120264908606D1E002DF5D100205C
:100C30002449086022480068002802D0012601F0FB
:100C40002DFD01F07CF9300070BC08BC1847F8B5E8
:100C500005000F001548066811480068001D00F0E7
:100C6000C3FC74190E4800684460B4422CD20C488E
:100C70000168091D0848006800F09AFC31E0000096
:100C8000A4010040F4010040080200401C020040A2
:100C9000300200408C000040900000409400004072
:100CA00088000040A0000040B000004098000040D4
:100CB000B4000040BC000040AC000040B800004060
:100CC000A8000040A4000040FE480168091DFE483D
:100CD000006800F06DFCFD480068844201D2FB48CA
:100CE0000460F8BC08BC1847F9480068401CF84983
:100CF00008607047F3B581B0040000200090FFF752
:100D0000F3FFF4480668216802980D182068B04285
:100D100007D92068A8420BD9B54209D90120009013
:100D200006E02068A84201D8B54201D90120009010
:100D300025600098002803D0A81B0021FFF787FF3B
:100D4000FFF72FFF0700002F01D101F0A7FCFEBC29
:100D500008BC184770B504000025002C08D0FFF728
:100D6000C3FF00212000FFF772FFFFF71AFF050005
:100D7000002D01D101F092FC70BC08BC1847FEB5F3
:100D800005000095CF48009D0068854201D10024F0
:100D900012E001F0C9F800984669CB480768CE48D0
:100DA0000068019001F0CBF8BE4202D00198864263
:100DB00001D1022400E001242000FEBC08BC184739
:100DC0007047C046FFF7FCFFC44800680128F9D906
:100DD00001F064FCF6E73EB56425C14800210B0034
:100DE000C82201AC21C40091BEA1C048FFF70EFE8D
:100DF0000400012C0CD101F057FCA01EB34908607F
:100E00000120BB4908600020B249086001F082F867
:100E10003EBC08BC184710B501F046FC0020B449A0
:100E2000086001F080F810BC08BC18470021A94AEE
:100E300010687047AF48006870470100002902D170
:100E4000A048006800E0080002001000343070473D
:100E50000200002101E0521C491C1078A528FAD09C
:100E600089080804000C7047FFB581B007000C002A
:100E70001E00002F02D19348006800E038000500F2
:100E80002560280034306060E86A2061286BE061EA
:100E9000E86BA06000206061A061052E08D0894841
:100EA0000068854202D10020207305E0267303E02C
:100EB0002800FFF764FF20730398002804D0286BF4
:100EC000FFF7C6FF208401E00020208405B0F0BCBD
:100ED00008BC1847F7B582B007000C000026206850
:100EE000002829D02000416849684160010008318C
:100EF00042688A4202D14168496841604168C968D4
:100F00000191C046200041684968416001000831F4
:100F100042688A4202D14168496841604168CD68AF
:100F200024207043C11901222800049BFFF79CFF75
:100F3000761C01988542E5D1300005B0F0BC08BCB4
:100F40001847F7B50500160000240427FFF7CCFE6C
:100F5000684901980968884224D3C0467F1E14223C
:100F60007A435E4BD1182422624350190122FFF7C5
:100F7000B1FF0419002FF1D1242161434819022245
:100F800051490968FFF7A6FF041924216143481954
:100F9000022251490968FFF79DFF0419002E01D074
:100FA00000203060FFF7FDFD2000FEBC08BC1847A4
:100FB00070B504000025FFF797FE4F480068001940
:100FC0004D490860FFF7EDFD0500280070BC08BC26
:100FD000184770B504000E00002C02D1394805688E
:100FE00000E0250000F0A0FF6E6400F0A8FF70BCD8
:100FF00008BC184770B50400002C02D131480068C5
:1010000000E02000060000F08FFF756C00F097FFF5
:10101000280070BC08BC184710B40100002902D198
:10102000284C246800E00C0023000022586C10BCFF
:101030007047F8B505000F00002D02D12148046863
:1010400000E02C00606C002805D03800616C01F0D5
:1010500029FB060000E000263000F8BC08BC184759
:101060001B480068002803D001202449086007E0DD
:101070000020224908602248C068C0681149086001
:10108000704770B505000C000E4801681831280043
:1010900000F08EFA01212000FFF7D9FD70BC08BCDA
:1010A000184770B506000C0015000120C00720434A
:1010B000044909688861034801681831300000F06C
:1010C0006BFA1FE0880000408C000040B400004034
:1010D000BC0000409800004090000040A401004087
:1010E000B800004049444C4500000000C30D00001A
:1010F000A000004094000040A4000040A800004070
:101100003002004001212800FFF7A1FD70BC08BC9F
:10111000184770B50600F068C4682000183000F069
:1011200063FAFD480068002807D1201D00F05CFA32
:10113000211DFA4800F03CFA04E021001831F8487B
:1011400000F02AFAF749E06A0968C96A884204D9B6
:1011500001250120F449086000E00025280070BC4A
:1011600008BC184770B504000E000120C0073043CA
:101170002060E568200000F037FA281D00F034FAFE
:10118000291DE64800F014FAE649E86A0968C96AC8
:10119000884202D90120E449086070BC08BC1847A5
:1011A00010B5040000F0C0FEE04800682060E04890
:1011B0000068606000F0C3FE10BC08BC1847DB4943
:1011C00009680160DA4909684160704770B5050037
:1011D0000C0000F0A9FED64802686868131AD349CB
:1011E00028680968884204D06868904201D80126BE
:1011F0000DE02068984207D92068C01A20602800B6
:10120000FFF7DDFF002602E000202060012600F04D
:1012100096FE300070BC08BC18470120C249086027
:1012200070470100002902D00A00106C00E0002085
:101230007047002801D0020011647047B94909685D
:101240008869B8490968C96A0422511AB54A1268FE
:101250009161704770B506000D0000F065FEB14861
:101260000068806C00280BD10121AE480068403036
:101270000173002D04D02800FFF7E9FC01F00EFAFD
:1012800000F05DFE00F050FEA6480068846C002C63
:101290000AD0002E04D00020A2490968886403E027
:1012A000601EA0490968886400219E48006840309B
:1012B000017300F044FE200070BC08BC1847FFB565
:1012C00081B0070014001D0000F02EFE9548006854
:1012D0004030007B022812D092490968080048304B
:1012E000896CB943016001218E4800684030017368
:1012F000002D04D02800FFF7AAFC01F0CFF900F080
:101300001EFE00F011FE002C03D086480068806CA1
:101310002060844800684030007B022801D000260D
:1013200008E080490968080048308A6C02998A43BD
:101330000260012600217B4800684030017300F004
:10134000FEFD300005B0F0BC08BC1847FFB583B007
:101350000D0016001F0001200290039C00F0E4FD28
:10136000002F01D0A06C38604C20005D019002215C
:101370004C200155330001F0ADF9051604080C0EA0
:101380001700A06C2843A0640FE0A06C401CA06470
:101390000BE0A56409E00198022801D0A56401E0F2
:1013A0000020029001E000E0C046C04601980128FC
:1013B0000ED1201D00F018F9211D584800F0F8F852
:1013C0005849E06A0968C96A884201D901F066F99A
:1013D00000F0B5FD029807B0F0BC08BC1847FFB597
:1013E00083B00D0016001F0001200190039C002017
:1013F0000090002F01D0A06C38604C20005D02905E
:1014000002214C200155330001F064F9051604084F
:101410000C0E1700A06C2843A0640FE0A06C401CC9
:10142000A0640BE0A56409E00298022801D0A5643D
:1014300001E00020019001E000E0C046C0460298B3
:1014400001281FD134480068002807D1201D00F072
:10145000CBF8211D314800F0ABF804E02100183131
:101460002F4800F099F82F49E06A0968C96A884254
:1014700008D90C98002802D001210C9801600120A5
:1014800029490860019807B0F0BC08BC1847F8B5B6
:1014900005000E002C00002000904C20075D02216A
:1014A0000155A06C401CA064012F1DD11A48006892
:1014B000002807D1201D00F097F8211D174800F0E3
:1014C00077F804E021001831154800F065F8154957
:1014D000E06A0968C96A884206D9002E01D0012055
:1014E0003060012010490860F8BC08BC184770B58E
:1014F0000500002D02D10B48006800E0280006001E
:1015000000F012FD4C20805D022813D100214C20F8
:10151000815501240FE00000BC0000403002004073
:101520001C02004088000040A8000040AC000040C1
:1015300098000040002400F002FD200070BC08BCB0
:101540001847F8B504000D00002C02D109480068C6
:1015500000E02000060000F0E7FC06480068876C09
:10156000B06CA843B06400F0EAFC3800F8BC08BCDA
:101570001847000088000040010008314160002148
:10158000C943816001000831C1600161002101602F
:10159000704700210161704742684A6093688B6020
:1015A000936859609160086103685B1C0360704731
:1015B00010B402000B685C1C002C01D1106907E01C
:1015C0001000083000E04068446824689C42FAD962
:1015D00044684C604C68A160886041600A6114688E
:1015E000641C146010BC704701000A694B6888686D
:1015F0009860081D09C858605068884201D1886801
:101600005060002008611068401E1060106870472C
:1016100070B505000E002C0000F086FC216CE06B1C
:10162000484321684018A0600020A06320686060E3
:10163000E06B401E216C484321684118E1600021A5
:10164000C9434420015545200155002E10D1206981
:10165000002801D1012000E00020002810D1200046
:101660001030FFF756FD00280AD001F017F807E008
:1016700020001030FFF780FF20002430FFF77CFFB0
:1016800000F05DFC012070BC08BC1847FFB581B0BC
:1016900006000D0017000A9C002D01D1246000E017
:1016A0002760E663256401212000FFF7B1FF4C218C
:1016B0000498085505B0F0BC08BC1847FEB50500F5
:1016C0000E00170028007043029002990800503065
:1016D00000F081FC0400002C0BD00194019C200040
:1016E000503001903B00009431002800019AFFF730
:1016F000CDFF2000FEBC08BC184770B5040000F008
:1017000013FC4520055714E0606A002801D1012030
:1017100000E00020002808D120002430FFF7F9FC69
:10172000002803D0FFF779FD00E004E0681E000602
:101730000516002DE8DCC0460021C94345200155AF
:1017400000F0FDFB00F0F0FB4420055714E0206999
:10175000002801D1012000E0002000280BD120004A
:101760001030FFF7D6FC002801D0FFF756FD681EA9
:101770000006051600E001E0002DE8DCC04600216F
:10178000C9434420015500F0DAFB70BC08BC18477F
:1017900070B5050000F0C8FBA86BE96B884201D169
:1017A000012400E0002400F0CAFB200070BC08BC4B
:1017B0001847F8B504000F00150000200090A66B34
:1017C000206C002827D0002D0FD13900226C6068D2
:1017D00000F086FC216C606840186060A168606859
:1017E000884218D32068606015E03900226CE068F8
:1017F00000F076FC216CE068411AE1602168E06845
:10180000884203D2216CA068411AE160022D02D106
:10181000002E00D0761E701CA0630098F8BC08BC97
:101820001847FFB583B007001D00002002903C0060
:10183000C04600F079FBA06BE16B884201D3022D1A
:1018400021D12A0020000499FFF7B3FF0600606A47
:10185000002801D1012000E00020002808D120004C
:101860002430FFF756FC002806D000F017FF03E0F5
:10187000002E01D000F012FF00F061FB012007B044
:10188000F0BC08BC18470598002803D100F057FBAE
:101890000020F4E70298002804D16846FFF78FFC87
:1018A0000120029000F04BFBFFF71EFA00F03CFB1A
:1018B00044210857401C002802D100214420015532
:1018C00045210857401C002802D100214520015520
:1018D00000F035FB05A96846FFF778FC002819D110
:1018E0002000FFF755FF00280ED02000103005998A
:1018F000FFF7C7FB2000FFF700FFFFF752F90028B2
:1019000097D100F0CBFE94E72000FFF7F6FEFFF73B
:1019100048F98EE72000FFF7F0FEFFF742F90020BC
:10192000ADE7FFB585B0050016001F002C000020B4
:101930000390A06BE16B884201D3022F29D145208F
:1019400001570291A06B01903A0020000699FFF721
:1019500030FF0298401C002812D1606A002801D193
:10196000012000E00020002809D120002430FFF7EA
:10197000D0FB002803D0002E01D00120306005E00C
:101980000298401C010609164520015501200490CB
:1019900001E000200490049809B0F0BC08BC18478E
:1019A000FEB505000E002C0000200290A06B0190F7
:1019B000E16B0198814224D945200157009101989B
:1019C000401CA0630098401C002812D1606A0028C7
:1019D00001D1012000E00020002810D12000243097
:1019E000FFF797FB00280AD0002E08D001203060B6
:1019F00005E00098401C0106091645200155012705
:101A000000E000273800FEBC08BC184770B5050090
:101A100000F08AFAA86B002801D1012400E000241C
:101A200000F08DFA200070BC08BC184770B50400A7
:101A30000D00206C00280ED0216CE0684118E16098
:101A4000A168E068884201D32168E1602800226C27
:101A5000E16800F045FB70BC08BC1847F7B582B0E0
:101A6000050000272C00C04600F05EFAA66B002E91
:101A70001CD020000399FFF7D9FF701EA0632069D6
:101A8000002801D1012000E00020002807D120001B
:101A90001030FFF73EFB002801D000F0FFFD00F002
:101AA0004EFA012005B0F0BC08BC18470498002885
:101AB00003D100F044FA0020F4E7002F03D1684678
:101AC000FFF77DFB012700F03AFAFFF70DF900F070
:101AD0002BFA44210857401C002802D10021442041
:101AE000015545210857401C002802D100214520FE
:101AF000015500F024FA04A96846FFF767FB0028A7
:101B000019D12000FFF782FF00280ED020002430DA
:101B10000499FFF7B6FA2000FFF7EFFDFFF741F851
:101B20000028A1D100F0BAFD9EE72000FFF7E5FDF7
:101B3000FFF737F898E72000FFF7DFFDFFF731F8F0
:101B40002000FFF763FF00288ED00020AAE7F3B53E
:101B500083B0050000272C00C04600F0E5F9A66B15
:101B6000002E18D0701EA0632069002801D101202A
:101B700000E00020002807D120001030FFF7C9FA4C
:101B8000002801D000F08AFD00F0D9F9012005B04D
:101B9000F0BC08BC18470498002803D100F0CFF926
:101BA0000020F4E7002F03D101A8FFF708FB01276D
:101BB00000F0C5F9FFF798F800F0B6F9442108578E
:101BC000401C002802D1002144200155452108571E
:101BD000401C002802D100214520015500F0AFF93A
:101BE00004A901A8FFF7F2FA002819D12000FFF795
:101BF0000DFF00280ED0200024300499FFF741FA91
:101C00002000FFF77AFDFEF7CCFF0028A5D100F0F9
:101C100045FDA2E72000FFF770FDFEF7C2FF9CE73D
:101C20002000FFF76AFDFEF7BCFF2000FFF7EEFE85
:101C3000002892D00020AAE7F7B584B0050000275D
:101C40002C00C04600F070F9A06B019001980028AC
:101C50001CD0E66820000599FFF7E8FEE660606AA0
:101C6000002801D1012000E00020002807D1200039
:101C70002430FFF74EFA002801D000F00FFD00F0ED
:101C80005EF9012007B0F0BC08BC18470698002890
:101C900003D100F054F90020F4E7002F03D102A88B
:101CA000FFF78DFA012700F04AF9FFF71DF800F061
:101CB0003BF944210857401C002802D10021442050
:101CC000015545210857401C002802D1002145201C
:101CD000015500F034F906A902A8FFF777FA0028A9
:101CE00019D12000FFF792FE00280ED020002430EA
:101CF0000699FFF7C6F92000FFF7FFFCFEF751FF3A
:101D000000289FD100F0CAFC9CE72000FFF7F5FCFB
:101D1000FEF747FF96E72000FFF7EFFCFEF741FFD5
:101D20002000FFF773FE00288CD00020AAE7F7B54B
:101D300084B0050016002C0000200390A06B0290D8
:101D40000298002828D044200157019120000599CD
:101D5000FFF76CFE0298401EA0630198401C00280B
:101D600012D12069002801D1012000E000200028C4
:101D700010D120001030FFF7CCF900280AD0002E37
:101D800008D00120306005E00198401C01060916CA
:101D900044200155012700E00027380007B0F0BCBF
:101DA00008BC1847F3B581B005002C000020009056
:101DB000A06B002807D0E76820000299FFF736FEE5
:101DC000E760012600E000263000FEBC08BC184792
:101DD00070B5040000F0A8F8A56B00F0B0F828007A
:101DE00070BC08BC184770B50400250000F09CF8D2
:101DF000A96BE86B461A00F0A2F8300070BC08BC72
:101E0000184701000A00906B704770B50400250068
:101E1000280000F035F970BC08BC18470100886C38
:101E200070478164704701004C20405C704701009E
:101E30000A00936B002B01D1012000E000207047C5
:101E400010B401000A00936BD46BA34201D10120AE
:101E500000E0002010BC704730B40300001F0C1DD0
:101E60000460001F3F4C0460001F0360001F3E4CD5
:101E70000460001F3D4C0460001F3D4C0460001FC7
:101E80003C4C0460001F3C4C0460001F3B4C046051
:101E9000001F3B4C0460001F3A4C0460001F3A4C8A
:101EA0000460001F394C0460001F394C0460001F9F
:101EB00064100460001F0260001F1F240460CC0730
:101EC000E40F002C03D0202504682C430460001F7D
:101ED0000024046030BC704700212E4AD1602E4897
:101EE00011008861032151615114C9681022914386
:101EF0002A4AD1601100096910221143274A116151
:101F00002749284A11602421274A11600121214ACA
:101F10005160704710B5FFF7DFFF00F0F7FA0020BF
:101F200010BC08BC1847704710B500F0BDFB1F4837
:101F30000068401C1D49086010BC08BC184710B55B
:101F40001A48006800280AD018480068401E17493F
:101F5000086008000068002801D100F0B1FB10BC47
:101F600008BC1847AAAAAAAA12121212111111111A
:101F700010101010090909090808080807070707C1
:101F80000606060605050505040404040303030309
:101F900002020202004000E060EA000000F0FFFFE1
:101FA000D425000000F1FFFF00F2FFFFC000004059
:101FB000454AD008C000454A10600022434B5A6091
:101FC000434A444B5A6000221A600100404A4A606A
:101FD0001A000A607047F8B5040000200090FEF770
:101FE00083FE3D480068002804D1FFF7E1FF01208F
:101FF00039490860002C09D008346007400F0028D8
:1020000004D06007400F0821081A0419002C31D0B1
:102010002F4884422ED22D4F3800056801E02F0052
:102020002D686868A04202D228680028F7D12948A4
:1020300085421FD03868083000902868386068688A
:10204000001B102810D92E196868001B70606C6086
:1020500071681E4800E00068026852688A42FAD33C
:10206000026832600660C0461C4968680968081A40
:102070001A490860FEF795FD0098F8BC08BC18479F
:1020800070B506003500002E16D0083D2C00FEF776
:102090002BFE61680D4800E00068026852688A42C1
:1020A000FAD30268226004600C496068096840182D
:1020B0000A490860FEF775FD70BC08BC1847074860
:1020C00000687047704700004C020040C4000040A8
:1020D000F8330000CC000040D8000040D40000409D
:1020E0007847C046030052E32A00009A03C010E27A
:1020F0000800000A0130D1E402005CE30C2082E019
:1021000001C0D1940130C0E40130D13401C0C09489
:10211000042042E20130C034033011E28C00000A96
:10212000042052E21B00003A03C031E7020053E3EF
:102130000800000A0F00008A2C34A0E104C0B1E5B9
:10214000042052E20C3C83E1043080E4F9FFFF2AD2
:10215000011081E20F0000EA2C38A0E104C0B1E5D3
:10216000042052E20C3883E1043080E4F9FFFF2AB6
:10217000021081E2070000EA2C3CA0E104C0B1E5B6
:10218000042052E20C3483E1043080E4F9FFFF2A9A
:10219000031081E20000A0E1822FB0E10130D124E0
:1021A00001C0D1240120D1440130C02401C0C02489
:1021B0000120C0441EFF2FE17847C046FF3002E2F5
:1021C000032483E1022882E17B0000EA013090E1F0
:1021D0002100004A0020B0E3A03071E01A00003A6C
:1021E000203271E00F00003A203471E00100003A23
:1021F00000C0A0E3200000EAA03371E0810340208A
:102200000220B2E0203371E0010340200220B2E05E
:10221000A03271E0810240200220B2E0203271E061
:10222000010240200220B2E0A03171E08101402093
:102230000220B2E0203171E0010140200220B2E032
:10224000A03071E0810040200220B2E0011050E097
:102250000010A0310200A2E01EFF2FE1022111E2D6
:102260000010614240C032E000006022203271E084
:102270001D00003A203471E00F00003A0113A0E184
:10228000203471E03F2382E30B00003A0113A0E108
:10229000203471E03F2682E30700003A0113A0E1F9
:1022A000203471E03F2982E30113A0213F2C8223D7
:1022B000003071E21D00002A2113A021A03371E03B
:1022C000810340200220B2E0203371E0010340206E
:1022D0000220B2E0A03271E0810240200220B2E090
:1022E000203271E0010240200220B2E0A03171E012
:1022F000810140200220B2E0203171E00101402044
:102300000220B2E0EBFFFF2AA03071E08100402004
:102310000220B2E0011050E00010A0310200A2E063
:10232000CCCFB0E100006042001061221EFF2FE11F
:10233000CCCFB0E10000604201402DE90000B0E3E5
:102340000000A0E10240BDE81EFF2FE1704770478A
:102350007047000010402DE9202052E20500003AAD
:102360001850B1E8202052E21850A0E81850B1E807
:102370001850A0E8F9FFFF2A02CEB0E11850B128AA
:102380001850A0281800B1481800A0481040BDE817
:1023900002CFB0E104309124043080241EFF2F01CD
:1023A000822FB0E1B230D1200120D144B230C02020
:1023B0000120C0441EFF2FE10020A0E3040051E3F0
:1023C0000700003A03C010E20B00000A04C06CE2F0
:1023D00002005CE30120C0140C1041E0B220C0A058
:1023E000050000EA81CFB0E10120C0240120C02413
:1023F0000120C0441EFF2FE10020A0E300402DE992
:102400000230A0E102C0A0E102E0A0E1201051E210
:102410000C50A0280C50A02820105122FBFFFF2AAE
:10242000011EB0E10C50A0280C00A0480040BDE8FF
:102430000111B0E1042080241EFF2F01B220C04012
:10244000010111E30120C0141EFF2FE10E50A0E195
:102450001A0000EB05E0A0E10050B0E10D10A0E192
:102460000A30A0E10700C0E300D0A0E160D08DE217
:1024700020402DE965F7FFEB2040BDE80060A0E3B8
:102480000070A0E30080A0E300B0A0E30710C1E368
:1024900005C0A0E1C009ACE8C009ACE8C009ACE8DF
:1024A000C009ACE801D0A0E11EFF2FE110B5040087
:1024B000C046C0462000FDF7A1FE10BC08BC18476E
:1024C00000009FE51EFF2FE14436004001C08FE26F
:1024D0001CFF2FE101491820ABDFFEE726000200B8
:1024E0001EFF2FE17847C0460020B0E3203171E0A5
:1024F00052FFFF3AA03271E047FFFF3A203471E00B
:102500003CFFFF3A00C0A0E35BFFFFEA7847C0460C
:102510006C019FE5000090E500E090E564019FE517
:102520000200BEE8001080E50100BEE800F06FE1A7
:10253000FF7FDEE80000A0E13CE09EE504F05EE203
:10254000000000EF1EFF2FE104E08EE201002DE904
:1025500000204DE90000A0E104D04DE20100BDE8FB
:10256000004020E900E0A0E10100BDE8FF7F4EE966
:102570000000A0E13CE04EE200004FE101002EE946
:1025800000019FE5000090E501002EE9F0009FE5C5
:10259000001090E500E081E5EC009FE50FE0A0E190
:1025A00010FF2FE1D8009FE5000090E500E090E5E6
:1025B000D0009FE50200BEE8001080E50100BEE803
:1025C00000F06FE1FF7FDEE80000A0E13CE09EE567
:1025D00004F05EE201002DE900204DE90000A0E1D9
:1025E00004D04DE20100BDE8004020E900E0A0E198
:1025F0000100BDE8FF7F4EE90000A0E13CE04EE2B3
:1026000000004FE101002EE978009FE5000090E511
:1026100001002EE968009FE5001090E500E081E5EB
:1026200068009FE50FE0A0E110FF2FE1000050E3FC
:102630000200000A50009FE50FE0A0E110FF2FE12B
:102640000100A0E348109FE5000081E544009FE5FC
:10265000000080E528009FE5000090E500E090E59F
:1026600020009FE50200BEE8001080E50100BEE802
:1026700000F06FE1FF7FDEE80000A0E13CE09EE5B6
:1026800004F05EE288000040C000004061100000DD
:10269000A90A0000004000E030F0FFFF7847C04684
:1026A000A6FFFFEA084700007847C04600000FE198
:1026B000801080E301F021E1800000E21EFF2FE1A5
:1026C0007847C04600000FE18000C0E300F021E140
:1026D0001EFF2FE17847C04601C05EE50C0053E1C4
:1026E0000100003A0C30DEE7000000EA0330DEE7CC
:1026F00083C08EE01CFF2FE118270000000000407F
:10270000DC00000048010000F4270000DC0000406D
:10271000EC3B000070010000000000100000110000
:102720000012010013010014010015010016010040
:102730001701001801001901001A01001B01001DFA
:1027400001001E01001F0101100101110101120110
:102750000113010114010115010116010117010105
:102760001801011901011A01011B01011D01011EBE
:1027700001011F011E000000000000000000000019
:102780000000000000000000000000000000000049
:102790000000000000000000000000000000000039
:1027A0000000000000000000000000000000000029
:1027B0000000000000000000000000000000000019
:1027C0000000000000000000000000000000000009
:1027D00000000000000000000F27000000000000C3
:1027E000000000000000000000000000F8330000BE
:0427F00000000000E5
:0400000500000104F2
:00000001FF
