:020000040000FA
:1000000018F09FE518F09FE518F09FE518F09FE5C0
:1000100018F09FE50000A0E1F0FF1FE518F09FE554
:100020005800000040000000782600004800000052
:100030004C000000000000005000000054000000D0
:10004000FEFFFFEAFEFFFFEAFEFFFFEAFEFFFFEA18
:10005000FEFFFFEAFEFFFFEA94009FE5AA10A0E37F
:100060005520A0E32430A0E3043080E50130A0E374
:10007000003080E50C1080E50C2080E5083090E52C
:10008000013B13E2FCFFFF0A0330A0E3003080E5F0
:100090000C1080E50C2080E558009FE50410A0E3DB
:1000A000041080E50210A0E3001080E548009FE501
:1000B000DBF021E300D0A0E1080040E2D7F021E32B
:1000C00000D0A0E1080040E2D1F021E300D0A0E19F
:1000D000080040E2D2F021E300D0A0E1030C40E2AE
:1000E000D3F021E300D0A0E1030C40E20C009FE537
:1000F00010FF2FE180C01FE000C01FE0C83C00409F
:1001000004010000000000EB2E0000EB2C008FE249
:10011000000C90E800A08AE000B08BE001704AE299
:100120000B005AE10000001A260000EB0F00BAE8AD
:1001300018E04FE2010013E303F0471013FF2FE133
:10014000E826000008270000102052E27800B028BE
:100150007800A128FBFFFF8A822EB0E13000B02892
:100160003000A12800409045004081451EFF2FE14E
:100170000030B0E30040B0E30050B0E30060B0E313
:10018000102052E27800A128FCFFFF8A822EB0E105
:100190003000A128003081451EFF2FE101C08FE211
:1001A0001CFF2FE11FB5059886460FBC009C02B0CE
:1001B0007047000001C08FE21CFF2FE130B475468C
:1001C000AE4630BC70470000EB0800EB0210A0E127
:1001D000F1FFFFEB1CC09FE50FC08CE001001CE3AA
:1001E0000DE08F120FE0A0011CFF2FE101C08FE294
:1001F0001CFF2FE102F0F2F96D0400007847C046C1
:1002000003002DE9EAFFFFEB0300BDE8FA0800EB6D
:100210000C009FE50C109FE504209FE508309FE54A
:100220001EFF2FE1A8360040B0390040A83600403C
:1002300001002DE900204DE90000A0E104D04DE2CD
:100240000100BDE8004020E900E0A0E10100BDE8B8
:10025000FF7F4EE90000A0E13CE04EE200004FE1EC
:1002600001002EE94C009FE5000090E501002EE919
:1002700044009FE5001090E500E081E53C009FE52B
:100280000FE0A0E110FF2FE12C009FE5000090E5BA
:1002900000E090E51C009FE50200BEE8001080E54C
:1002A0000100BEE800F06FE1FF7FDEE80000A0E1A2
:1002B0003CE09EE504F05EE2C000004088000040A3
:1002C0002D09000000205BE041004118624A515CAA
:1002D000002902D0012950D127E0410041185E4A8F
:1002E0008918897800290CD15C49896842008218F4
:1002F000594BD218537801229A409143574A916042
:1003000012E041004118544A8918897801290BD11B
:1003100052498968420082184F4BD2185378012203
:100320009A4011434D4A916028E0410041184A4AE1
:100330008918897800290CD14849896942008218B6
:10034000454BD218537801229A409143434A916118
:1003500012E041004118404A8918897801290BD1DF
:100360003E498969420082183B4BD21853780122DA
:100370009A401143394A916100E0C046C046401C92
:100380003749098888429FDB70470200002A02D063
:10039000012A0CD105E0314B1B68CB40D807C00FB8
:1003A00005E02E4B1B69CB40D807C00FC046C046A6
:1003B000704710B4002802D0012827D113E0002A8A
:1003C00007D1264BDB6801248C402343234CE36098
:1003D00008E0012A06D1214B5B6801248C402343AD
:1003E0001E4C636012E0002A07D11C4BDB6901241C
:1003F0008C402343194CE36108E0012A06D1174BD6
:100400005B6901248C402343144C6361C04610BCDB
:10041000704700281DD1134A1278002A0AD10F4ACA
:10042000526801238B401A430C4B5A6001220D4B3A
:100430001A700DE00B4A1278012A09D1074AD268D6
:1004400001238B401A43054BDA600022054B1A70DA
:10045000C046C0467047000002000040008002E035
:100460005C0000400000004084B00025A9A003907B
:10047000ADA00290C04600F060FB0190C046012292
:1004800017210020FFF795FF10210020FFF77DFFC7
:100490000400012C0AD1002D08D10023821E03A9DB
:1004A000A648006801F055FA01250BE0002C09D19F
:1004B000012D07D100235A1E02A9A048006801F0AF
:1004C00048FA0025322101A800F0ACFC00221721D7
:1004D0001000FFF76EFFD2E784B0002598A00390CC
:1004E0009CA00290C04600F028FB0190C04611215C
:1004F0000020FFF74AFF0400012C0AD1002D08D18B
:100500000023821E03A98D48006801F022FA01250C
:100510000BE0002C09D1012D07D100235A1E02A99E
:100520008648006801F015FA0025322101A800F084
:1005300079FCDCE782B08CA00190C04600F0FDFAA7
:100540000090C04600235A1E01A97C48006801F0B3
:1005500000FA6421684600F065FCF3E782B0C0460B
:1005600000F0EBFA009000F0E8FA0090C04600229C
:10057000D24301A97148006801F008FB11210198DC
:1005800000F0AAF91421684600F04CFCEFE782B0B5
:100590000024C04600F0D1FA0190C0460122132188
:1005A0000020FFF706FF002400E0641C734884422B
:1005B000FBDB0A2101A800F035FCEFE782B0002444
:1005C000C04600F0BAFA0190C04601221221002074
:1005D000FFF7EFFE002400E0641C69488442FBDB67
:1005E000642101A800F01EFCEFE710B501221521DF
:1005F0000020FFF7DEFE002215211000FFF7D9FED4
:1006000010BC08BC184710B5012214210020FFF7C8
:10061000D0FE10BC08BC18477D20C0005949C860F6
:10062000080040680121084356494860704710B5EA
:10063000E120400200F0FEF8FFF744FEFFF7ECFF78
:1006400001205149087010BC08BC184784B0FFF75E
:10065000EEFF002204210A2001F0C8F837490860A3
:1006600064204A4902220023009201910290C8228C
:1006700047A14C4800F06CFA0A204B4902220023A3
:10068000009201910290C82248A14D4800F060FA02
:1006900032204C4902220023009201910290C8228C
:1006A00049A14E4800F054FA32204D49022200235D
:1006B000009201910290C8224AA14F4800F048FAE6
:1006C00014204E4902220023009201910290C82278
:1006D0004BA14F4800F03CFA64204E49022200230F
:1006E000009201910290C8224BA1514800F030FACB
:1006F00000F00BFCC046FEE7224840680221084398
:100700002049486008004068022188431D4948602C
:1007100070470000427574746F6E5F315F524953C9
:10072000494E47200A000000427574746F6E5F31B5
:100730005F46414C4C494E470A0000007C00004097
:10074000427574746F6E5F325F524953494E472051
:100750000A000000427574746F6E5F325F46414C50
:100760004C494E470A000000706572696F64696306
:1007700020737472696E67200A0000007C9200008A
:10078000905F0100008000E000C11FE074000040A5
:100790004C6F61645F325F53696D756C6174696F32
:1007A0006E000000BD050000700000404C6F6164E9
:1007B0005F315F53696D756C6174696F6E00000025
:1007C0008F05000060000040427574746F6E5F31E9
:1007D0005F4D6F6E69746F72000000006904000065
:1007E00064000040427574746F6E5F325F4D6F6ECF
:1007F00069746F7200000000D90400006C000040B2
:10080000556172745F5265636569766572000000B8
:100810005D05000068000040506572696F6469639F
:100820005F5472616E736D697474657200000000CC
:100830003505000070B505005A480068012109041B
:1008400008435849086008000068012189040843EA
:10085000544908602E013100534801F0DBFE0400CA
:100860005248007B80210843504908730C70240AC9
:100870000C7107200872032008734814C068802197
:1008800088434B49C86008000069802108434849F3
:10089000086148484849486027204849486043481B
:1008A0000079032108434149087170BC08BC18470E
:1008B000010043480078012809D10020404A107007
:1008C000404800780006001608700120704700209C
:1008D000FCE7364A1070704770B505000C003A48C6
:1008E0000078002820D1002D1ED038490C703649E0
:1008F0000C70002303E0E85C3549C8545B1CA3423C
:10090000F9DB31490A780978491E2F4E31702F4999
:100910000978891A2E4A515C09060816FFF7D9FF93
:10092000012070BC08BC18470020FAE710B41F4A29
:10093000107A2EE00207120F022A0BD0042A1CD0D4
:10094000062A02D00C2A20D116E0184A127D110680
:1009500009161BE01C4A1278002A0CDD1A4A13788B
:100960001278521E184C2270184A1278D21A184B5C
:100970009A5C0E4B1A7009E0C0460C4A1278114B73
:100980001A7001220E4B1A7000E0C046C046074A9A
:10099000107AC207D20F002ACCD00022044B1A636F
:1009A00010BC704700C002E000879303000001E024
:1009B00000F0FFFF3002000000F1FFFF00F2FFFF38
:1009C000820000408100004084000040830000401D
:1009D000DC00004010B5002406E014216143FC4A0D
:1009E000881800F061FE641C042CF6D3F94800F06E
:1009F0005BFEF94800F058FEF84800F055FEF84854
:100A000000F052FEF348F7490860F348F6490860E1
:100A100010BC08BC184710B5040001F01DFBF348DA
:100A20000068401CF1490860F1480068002808D1BE
:100A3000EF4804600800006801280ED1FFF7CAFFE4
:100A40000BE0EC480068002807D1E9480068C06A5C
:100A5000E16A884201D8E6480460E7480068401C23
:100A6000E549086008000068E063211DDC4800F0EB
:100A700037FE01F0FCFADF480068002807D0DC48A8
:100A80000068C06AE16A884201D201F09FFE10BC92
:100A900008BC1847FFB581B00E0017000C9CB900C8
:100AA000A522206B01F020FC781E8000216B081825
:100AB00000900098C008C0000090002E11D00025C2
:100AC00008E0715D200034304155705D002800D190
:100AD00002E06D1C082DF4D3C04600213B200155D7
:100AE00002E00021342001550A98042801D3032094
:100AF0000A900A98E062201D00F0E3FD2000183003
:100B000000F0DFFD246104210A98081AA0616462E4
:100B100000206064A06400214C200155049A6846BE
:100B200003C801F031FA20600B98002801D00B981F
:100B3000046005B0F0BC08BC184710B501F08CFA91
:100B4000AE48046801F093FA200010BC08BC1847B6
:100B5000FFB585B01700B80001F0D5FA0600002EE9
:100B60000BD0542001F0CFFA0400002C01D02663F2
:100B700004E0300001F01CFB00E000241098206528
:100B8000002C15D0FFF7D9FF216D401860600022BE
:100B90000EA803C86B4613C303923A00089B05A82E
:100BA00003C8FFF777FF2000FFF735FF012501E0BD
:100BB0000025ED43280009B0F0BC08BC184789495E
:100BC00009680968002901D1012100E000210029FC
:100BD00004D00021C9438A4A116006E081490968AE
:100BE000C968C868864A416811607047F8B5002036
:100BF000009084480068002861D180480068451C46
:100C00007E480560002D0FD1764807687648006859
:100C100074490860744807607B480068401C7A4942
:100C20000860FFF7CCFFC04675480068854239D39D
:100C3000C0466C4800680068002801D1012000E02F
:100C40000020002804D00020C0436D49086028E03F
:100C500064480068C068C4686668B54202D26848E3
:100C600006601EE0201D00F057FDA06A002803D09A
:100C70002000183000F050FD6049206D09684018D0
:100C8000606062480068006D5C49096840185F490F
:100C900009684860211D524800F022FD01200090A3
:100CA000C7E7C0465A480068002801D1FFF79DFCFD
:100CB00058480068002801D00120009006E0544800
:100CC0000068401C52490860FFF78FFC0098F8BC90
:100CD00008BC184770B50024002601F0BDF949484A
:100CE0000068401E4749086008000068002841D19C
:100CF0003E48006800283DD016E03848C068C46807
:100D00002000183000F008FD201D00F005FD211D19
:100D1000334800F0E5FC3649E06A0968C96A884250
:100D200002D301203B4908602C480068002801D10B
:100D3000012000E000200028DFD0002C01D0FFF7C8
:100D40003EFF33480568002D0DD0C046FFF74EFF2B
:100D5000002802D001202F4908606D1E002DF5D11A
:100D600000202B4908602B480068002802D001268B
:100D700001F02CFD01F07BF9300070BC08BC184775
:100D8000F8B505000F001D48066819480068001DE9
:100D900000F0C2FC7419164800684460B44207D2DF
:100DA00013480168091D1048006800F099FC0CE028
:100DB0000F480168091D0B48006800F091FC1048BD
:100DC0000068844201D20E480460F8BC08BC184791
:100DD000A4010040F4010040080200401C02004051
:100DE000300200408C000040900000409400004021
:100DF00088000040A0000040B00000409800004083
:100E0000B4000040BC000040AC000040B80000400E
:100E1000A4000040A8000040FA480068401CF949BE
:100E200008607047F3B581B0040000200090FFF720
:100E3000F3FFF5480668216802980D182068B04253
:100E400007D92068A8420BD9B54209D901200090E2
:100E500006E02068A84201D8B54201D901200090DF
:100E600025600098002803D0A81B0021FFF788FF09
:100E7000FFF730FF0700002F01D101F0A7FCFEBCF7
:100E800008BC184770B504000025002C08D0FFF7F7
:100E9000C3FF00212000FFF773FFFFF71BFF0500D2
:100EA000002D01D101F092FC70BC08BC1847FEB5C2
:100EB00005000095D548009D0068854201D10024B9
:100EC00012E001F0C9F800984669D1480768D14896
:100ED0000068019001F0CBF8BE4202D00198864232
:100EE00001D1022400E001242000FEBC08BC184708
:100EF0007047C046FFF7FCFFC7480068012801D9CA
:100F000001F064FCFFF77FFBF4E73EB5C825C3485A
:100F100000210B00C82201AC21C40091C0A1C2482D
:100F2000FFF716FE0400012C0CD101F055FCA01EA9
:100F3000BE4908600120BE4908600020B24908602F
:100F400001F080F83EBC08BC184710B501F044FC25
:100F50000020B749086001F07EF810BC08BC1847B3
:100F60000021A94A10687047B24800687047010024
:100F7000002902D1A548006800E008000200100026
:100F8000343070470200002101E0521C491C1078E7
:100F9000A528FAD089080804000C7047FFB581B075
:100FA00007000C001E00002F02D19848006800E0E6
:100FB000380005002560280034306060E86A206150
:100FC000286BE061E86BA06000206061A061052EE5
:100FD00008D08E480068854202D10020207305E0C9
:100FE000267303E02800FFF762FF207303980028B0
:100FF00004D0286BFFF7C6FF208401E00020208486
:1010000005B0F0BC08BC1847F7B582B007000C006B
:1010100000262068002829D02000416849684160E6
:101020000100083142688A4202D141684968416042
:101030004168C9680191C046200041684968416023
:101040000100083142688A4202D141684968416022
:101050004168CD6824207043C11901222800049BF7
:10106000FFF79CFF761C01988542E5D1300005B062
:10107000F0BC08BC1847F7B505001600002404278B
:10108000FFF7CAFE6B4901980968884224D3C0461D
:101090007F1E14227A43604BD118242262435019D8
:1010A0000122FFF7B1FF0419002FF1D12421614380
:1010B0004819022256490968FFF7A6FF041924219E
:1010C00061434819022253490968FFF79DFF04193B
:1010D000002E01D000203060FFF7FCFD2000FEBC98
:1010E00008BC184770B504000025FFF795FE52486C
:1010F0000068001950490860FFF7ECFD0500280062
:1011000070BC08BC184770B504000E00002C02D15A
:101110003E48056800E0250000F09EFF6E6400F088
:10112000A6FF70BC08BC184770B50400002C02D1A3
:101130003648006800E02000060000F08DFF756C66
:1011400000F095FF280070BC08BC184710B40100DF
:10115000002902D12D4C246800E00C00230000225D
:10116000586C10BC7047F8B505000F00002D02D177
:101170002648046800E02C00606C002805D0380088
:10118000616C01F027FB060000E000263000F8BC8F
:1011900008BC18471B480068002803D001202749D5
:1011A000086007E00020254908602548C068C0683D
:1011B00016490860704770B505000C0013480168B7
:1011C0001831280000F08CFA01212000FFF7D8FD2B
:1011D00070BC08BC184770B506000C001500012053
:1011E000C007204309490968886108480168183127
:1011F000300000F069FA01212800FFF7C1FD70BC42
:1012000008BC1847BC00004098000040880000401F
:101210008C00004090000040A4010040B800004055
:1012200049444C4500000000F30E0000B4000040AB
:10123000A000004094000040A4000040A80000402E
:101240003002004070B50600F068C4682000183015
:1012500000F062FAFC480068002807D1201D00F069
:101260005BFA211DF94800F03BFA04E02100183137
:10127000F74800F029FAF749E06A0968C96A884224
:1012800004D901250120F449086000E00025280068
:1012900070BC08BC184770B504000E000120C007E0
:1012A00030432060E568200000F036FA281D00F089
:1012B00033FA291DE54800F013FAE649E86A09689F
:1012C000C96A884202D90120E349086070BC08BCA1
:1012D000184710B5040000F0BFFEE0480068206029
:1012E000DF480068606000F0C2FE10BC08BC184710
:1012F000DA4909680160DA4909684160704770B5E8
:1013000005000C0000F0A8FED54802686868131AB2
:10131000D24928680968884204D06868904201D898
:1013200001260DE02068984207D92068C01A206085
:101330002800FFF7DDFF002602E0002020600126E4
:1013400000F095FE300070BC08BC18470120C2496F
:10135000086070470100002902D00A00106C00E00C
:1013600000207047002801D0020011647047B9497D
:1013700009688869B7490968C96A0422511AB54AD7
:1013800012689161704770B506000D0000F064FEB0
:10139000B0480068806C00280BD10121AD4800687E
:1013A00040300173002D04D02800FFF7E9FC01F064
:1013B0000DFA00F05CFE00F04FFEA6480068846C59
:1013C000002C0AD0002E04D00020A24909688864AD
:1013D00003E0601E9F490968886400219D480068F9
:1013E0004030017300F043FE200070BC08BC184779
:1013F000FFB581B0070014001D0000F02DFE9548D8
:1014000000684030007B022812D092490968080029
:101410004830896CB943016001218E480068403032
:101420000173002D04D02800FFF7AAFC01F0CEF9CB
:1014300000F01DFE00F010FE002C03D0854800686F
:10144000806C2060834800684030007B022801D017
:10145000002608E07F490968080048308A6C029934
:101460008A430260012600217A48006840300173F7
:1014700000F0FDFD300005B0F0BC08BC1847FFB51A
:1014800083B00D0016001F0001200290039C00F0A5
:10149000E3FD002F01D0A06C38604C20005D01906E
:1014A00002214C200155330001F0ACF90516040867
:1014B0000C0E1700A06C2843A0640FE0A06C401C29
:1014C000A0640BE0A56409E00198022801D0A5649E
:1014D00001E00020029001E000E0C046C046019813
:1014E00001280ED1201D00F017F9211D574800F0EA
:1014F000F7F85849E06A0968C96A884201D901F0D9
:1015000065F900F0B4FD029807B0F0BC08BC1847BC
:10151000FFB583B00D0016001F0001200190039C51
:1015200000200090002F01D0A06C38604C20005D9E
:10153000029002214C200155330001F063F9051699
:1015400004080C0E1700A06C2843A0640FE0A06CE8
:10155000401CA0640BE0A56409E00298022801D0B9
:10156000A56401E00020019001E000E0C046C04613
:10157000029801281FD134480068002807D1201D97
:1015800000F0CAF8211D314800F0AAF804E021005B
:1015900018312F4800F098F82E49E06A0968C96AA6
:1015A000884208D90C98002802D001210C980160CB
:1015B000012029490860019807B0F0BC08BC184711
:1015C000F8B505000E002C00002000904C20075DAF
:1015D00002210155A06C401CA064012F1DD11A48A6
:1015E0000068002807D1201D00F096F8211D17483B
:1015F00000F076F804E021001831154800F064F896
:101600001449E06A0968C96A884206D9002E01D0E7
:1016100001203060012010490860F8BC08BC184760
:1016200070B50500002D02D10A48006800E02800CE
:10163000060000F011FD4C20805D022812D100212F
:101640004C20815501240EE0BC00004030020040D7
:101650001C02004088000040A8000040AC00004090
:1016600098000040002400F002FD200070BC08BC7F
:101670001847F8B504000D00002C02D10948006895
:1016800000E02000060000F0E7FC06480068876CD8
:10169000B06CA843B06400F0EAFC3800F8BC08BCA9
:1016A0001847000088000040010008314160002117
:1016B000C943816001000831C160016100210160FE
:1016C000704700210161704742684A6093688B60EF
:1016D000936859609160086103685B1C0360704700
:1016E00010B402000B685C1C002C01D1106907E0EB
:1016F0001000083000E04068446824689C42FAD931
:1017000044684C604C68A160886041600A6114685C
:10171000641C146010BC704701000A694B6888683B
:101720009860081D09C858605068884201D18868CF
:101730005060002008611068401E106010687047FB
:1017400070B505000E002C0000F086FC216CE06BEB
:10175000484321684018A0600020A06320686060B2
:10176000E06B401E216C484321684118E160002174
:10177000C9434420015545200155002E10D1206950
:10178000002801D1012000E00020002810D1200015
:101790001030FFF757FD00280AD001F017F807E0D6
:1017A00020001030FFF780FF20002430FFF77CFF7F
:1017B00000F05DFC012070BC08BC1847FFB581B08B
:1017C00006000D0017000A9C002D01D1246000E0E6
:1017D0002760E663256401212000FFF7B1FF4C215B
:1017E0000498085505B0F0BC08BC1847FEB50500C4
:1017F0000E00170028007043029002990800503034
:1018000000F081FC0400002C0BD00194019C20000E
:10181000503001903B00009431002800019AFFF7FE
:10182000CDFF2000FEBC08BC184770B5040000F0D6
:1018300013FC4520055714E0606A002801D10120FF
:1018400000E00020002808D120002430FFF7FAFC37
:10185000002803D0FFF77AFD00E004E0681E0006D0
:101860000516002DE8DCC0460021C943452001557E
:1018700000F0FDFB00F0F0FB4420055714E0206968
:10188000002801D1012000E0002000280BD1200019
:101890001030FFF7D7FC002801D0FFF757FD681E76
:1018A0000006051600E001E0002DE8DCC04600213E
:1018B000C9434420015500F0DAFB70BC08BC18474E
:1018C00070B5050000F0C8FBA86BE96B884201D138
:1018D000012400E0002400F0CAFB200070BC08BC1A
:1018E0001847F8B504000F00150000200090A66B03
:1018F000206C002827D0002D0FD13900226C6068A1
:1019000000F086FC216C606840186060A168606827
:10191000884218D32068606015E03900226CE068C6
:1019200000F076FC216CE068411AE1602168E06813
:10193000884203D2216CA068411AE160022D02D1D5
:10194000002E00D0761E701CA0630098F8BC08BC66
:101950001847FFB583B007001D00002002903C002F
:10196000C04600F079FBA06BE16B884201D3022DE9
:1019700021D12A0020000499FFF7B3FF0600606A16
:10198000002801D1012000E00020002808D120001B
:101990002430FFF757FC002806D000F017FF03E0C3
:1019A000002E01D000F012FF00F061FB012007B013
:1019B000F0BC08BC18470598002803D100F057FB7D
:1019C0000020F4E70298002804D16846FFF790FC55
:1019D0000120029000F04BFBFFF71EFA00F03CFBE9
:1019E00044210857401C002802D100214420015501
:1019F00045210857401C002802D1002145200155EF
:101A000000F035FB05A96846FFF779FC002819D1DD
:101A10002000FFF755FF00280ED020001030059958
:101A2000FFF7C9FB2000FFF700FFFFF753F900287D
:101A300097D100F0CBFE94E72000FFF7F6FEFFF70A
:101A400049F98EE72000FFF7F0FEFFF743F9002089
:101A5000ADE7FFB585B0050016001F002C00002083
:101A60000390A06BE16B884201D3022F29D145205E
:101A700001570291A06B01903A0020000699FFF7F0
:101A800030FF0298401C002812D1606A002801D162
:101A9000012000E00020002809D120002430FFF7B9
:101AA000D1FB002803D0002E01D00120306005E0DA
:101AB0000298401C0106091645200155012004909A
:101AC00001E000200490049809B0F0BC08BC18475D
:101AD000FEB505000E002C0000200290A06B0190C6
:101AE000E16B0198814224D945200157009101986A
:101AF000401CA0630098401C002812D1606A002896
:101B000001D1012000E00020002810D12000243065
:101B1000FFF798FB00280AD0002E08D00120306083
:101B200005E00098401C01060916452001550127D3
:101B300000E000273800FEBC08BC184770B505005F
:101B400000F08AFAA86B002801D1012400E00024EB
:101B500000F08DFA200070BC08BC184770B5040076
:101B60000D00206C00280ED0216CE0684118E16067
:101B7000A168E068884201D32168E1602800226CF6
:101B8000E16800F045FB70BC08BC1847F7B582B0AF
:101B9000050000272C00C04600F05EFAA66B002E60
:101BA0001CD020000399FFF7D9FF701EA0632069A5
:101BB000002801D1012000E00020002807D12000EA
:101BC0001030FFF73FFB002801D000F0FFFD00F0D0
:101BD0004EFA012005B0F0BC08BC18470498002854
:101BE00003D100F044FA0020F4E7002F03D1684647
:101BF000FFF77EFB012700F03AFAFFF70DF900F03E
:101C00002BFA44210857401C002802D1002144200F
:101C1000015545210857401C002802D100214520CC
:101C2000015500F024FA04A96846FFF768FB002874
:101C300019D12000FFF782FF00280ED020002430A9
:101C40000499FFF7B8FA2000FFF7EFFDFFF742F81D
:101C50000028A1D100F0BAFD9EE72000FFF7E5FDC6
:101C6000FFF738F898E72000FFF7DFFDFFF732F8BD
:101C70002000FFF763FF00288ED00020AAE7F3B50D
:101C800083B0050000272C00C04600F0E5F9A66BE4
:101C9000002E18D0701EA0632069002801D10120F9
:101CA00000E00020002807D120001030FFF7CAFA1A
:101CB000002801D000F08AFD00F0D9F9012005B01C
:101CC000F0BC08BC18470498002803D100F0CFF9F5
:101CD0000020F4E7002F03D101A8FFF709FB01273B
:101CE00000F0C5F9FFF798F800F0B6F9442108575D
:101CF000401C002802D100214420015545210857ED
:101D0000401C002802D100214520015500F0AFF908
:101D100004A901A8FFF7F3FA002819D12000FFF762
:101D20000DFF00280ED0200024300499FFF743FA5D
:101D30002000FFF77AFDFEF7CDFF0028A5D100F0C7
:101D400045FDA2E72000FFF770FDFEF7C3FF9CE70B
:101D50002000FFF76AFDFEF7BDFF2000FFF7EEFE53
:101D6000002892D00020AAE7F7B584B0050000272C
:101D70002C00C04600F070F9A06B0190019800287B
:101D80001CD0E66820000599FFF7E8FEE660606A6F
:101D9000002801D1012000E00020002807D1200008
:101DA0002430FFF74FFA002801D000F00FFD00F0BB
:101DB0005EF9012007B0F0BC08BC1847069800285F
:101DC00003D100F054F90020F4E7002F03D102A85A
:101DD000FFF78EFA012700F04AF9FFF71DF800F02F
:101DE0003BF944210857401C002802D1002144201F
:101DF000015545210857401C002802D100214520EB
:101E0000015500F034F906A902A8FFF778FA002876
:101E100019D12000FFF792FE00280ED020002430B8
:101E20000699FFF7C8F92000FFF7FFFCFEF752FF05
:101E300000289FD100F0CAFC9CE72000FFF7F5FCCA
:101E4000FEF748FF96E72000FFF7EFFCFEF742FFA2
:101E50002000FFF773FE00288CD00020AAE7F7B51A
:101E600084B0050016002C0000200390A06B0290A7
:101E70000298002828D0442001570191200005999C
:101E8000FFF76CFE0298401EA0630198401C0028DA
:101E900012D12069002801D1012000E00020002893
:101EA00010D120001030FFF7CDF900280AD0002E05
:101EB00008D00120306005E00198401C0106091699
:101EC00044200155012700E00027380007B0F0BC8E
:101ED00008BC1847F3B581B005002C000020009025
:101EE000A06B002807D0E76820000299FFF736FEB4
:101EF000E760012600E000263000FEBC08BC184761
:101F000070B5040000F0A8F8A56B00F0B0F8280048
:101F100070BC08BC184770B50400250000F09CF8A0
:101F2000A96BE86B461A00F0A2F8300070BC08BC40
:101F3000184701000A00906B704770B50400250037
:101F4000280000F035F970BC08BC18470100886C07
:101F500070478164704701004C20405C704701006D
:101F60000A00936B002B01D1012000E00020704794
:101F700010B401000A00936BD46BA34201D101207D
:101F800000E0002010BC704730B40300001F0C1D9F
:101F90000460001F3F4C0460001F0360001F3E4CA4
:101FA0000460001F3D4C0460001F3D4C0460001F96
:101FB0003C4C0460001F3C4C0460001F3B4C046020
:101FC000001F3B4C0460001F3A4C0460001F3A4C59
:101FD0000460001F394C0460001F394C0460001F6E
:101FE00064100460001F0260001F1F240460CC07FF
:101FF000E40F002C03D0202504682C430460001F4C
:102000000024046030BC704700212E4AD1602E4865
:1020100011008861032151615114C9681022914354
:102020002A4AD1601100096910221143274A11611F
:102030002749284A11602421274A11600121214A99
:102040005160704710B5FFF7DFFF00F0F7FA00208E
:1020500010BC08BC1847704710B500F0BDFB1F4806
:102060000068401C1D49086010BC08BC184710B52A
:102070001A48006800280AD018480068401E17490E
:10208000086008000068002801D100F0B1FB10BC16
:1020900008BC1847AAAAAAAA1212121211111111E9
:1020A0001010101009090909080808080707070790
:1020B00006060606050505050404040403030303D8
:1020C00002020202004000E060EA000000F0FFFFB0
:1020D0000427000000F1FFFF00F2FFFFC0000040F6
:1020E000454AD008C000454A10600022434B5A6060
:1020F000434A444B5A6000221A600100404A4A6039
:102100001A000A607047F8B5040000200090FEF73E
:1021100083FE3D480068002804D1FFF7E1FF01205D
:1021200039490860002C09D008346007400F0028A6
:1021300004D06007400F0821081A0419002C31D080
:102140002F4884422ED22D4F3800056801E02F0021
:102150002D686868A04202D228680028F7D1294873
:1021600085421FD038680830009028683860686859
:10217000001B102810D92E196868001B70606C6055
:1021800071681E4800E00068026852688A42FAD30B
:10219000026832600660C0461C4968680968081A0F
:1021A0001A490860FEF796FD0098F8BC08BC18476D
:1021B00070B506003500002E16D0083D2C00FEF745
:1021C0002BFE61680D4800E00068026852688A4290
:1021D000FAD30268226004600C49606809684018FC
:1021E0000A490860FEF776FD70BC08BC184707482E
:1021F00000687047704700004C020040C400004077
:10220000F8330000CC000040D8000040D40000406B
:102210007847C046030052E32A00009A03C010E248
:102220000800000A0130D1E402005CE30C2082E0E7
:1022300001C0D1940130C0E40130D13401C0C09458
:10224000042042E20130C034033011E28C00000A65
:10225000042052E21B00003A03C031E7020053E3BE
:102260000800000A0F00008A2C34A0E104C0B1E588
:10227000042052E20C3C83E1043080E4F9FFFF2AA1
:10228000011081E20F0000EA2C38A0E104C0B1E5A2
:10229000042052E20C3883E1043080E4F9FFFF2A85
:1022A000021081E2070000EA2C3CA0E104C0B1E585
:1022B000042052E20C3483E1043080E4F9FFFF2A69
:1022C000031081E20000A0E1822FB0E10130D124AF
:1022D00001C0D1240120D1440130C02401C0C02458
:1022E0000120C0441EFF2FE17847C046FF3002E2C4
:1022F000032483E1022882E17B0000EA013090E1BF
:102300002100004A0020B0E3A03071E01A00003A3A
:10231000203271E00F00003A203471E00100003AF1
:1023200000C0A0E3200000EAA03371E08103402058
:102330000220B2E0203371E0010340200220B2E02D
:10234000A03271E0810240200220B2E0203271E030
:10235000010240200220B2E0A03171E08101402062
:102360000220B2E0203171E0010140200220B2E001
:10237000A03071E0810040200220B2E0011050E066
:102380000010A0310200A2E01EFF2FE1022111E2A5
:102390000010614240C032E000006022203271E053
:1023A0001D00003A203471E00F00003A0113A0E153
:1023B000203471E03F2382E30B00003A0113A0E1D7
:1023C000203471E03F2682E30700003A0113A0E1C8
:1023D000203471E03F2982E30113A0213F2C8223A6
:1023E000003071E21D00002A2113A021A03371E00A
:1023F000810340200220B2E0203371E0010340203D
:102400000220B2E0A03271E0810240200220B2E05E
:10241000203271E0010240200220B2E0A03171E0E0
:10242000810140200220B2E0203171E00101402012
:102430000220B2E0EBFFFF2AA03071E081004020D3
:102440000220B2E0011050E00010A0310200A2E032
:10245000CCCFB0E100006042001061221EFF2FE1EE
:10246000CCCFB0E10000604201402DE90000B0E3B4
:102470000000A0E10240BDE81EFF2FE17047704759
:102480007047000010402DE9202052E20500003A7C
:102490001850B1E8202052E21850A0E81850B1E8D6
:1024A0001850A0E8F9FFFF2A02CEB0E11850B12879
:1024B0001850A0281800B1481800A0481040BDE8E6
:1024C00002CFB0E104309124043080241EFF2F019C
:1024D000822FB0E1B230D1200120D144B230C020EF
:1024E0000120C0441EFF2FE10020A0E3040051E3BF
:1024F0000700003A03C010E20B00000A04C06CE2BF
:1025000002005CE30120C0140C1041E0B220C0A026
:10251000050000EA81CFB0E10120C0240120C024E1
:102520000120C0441EFF2FE10020A0E300402DE960
:102530000230A0E102C0A0E102E0A0E1201051E2DF
:102540000C50A0280C50A02820105122FBFFFF2A7D
:10255000011EB0E10C50A0280C00A0480040BDE8CE
:102560000111B0E1042080241EFF2F01B220C040E1
:10257000010111E30120C0141EFF2FE10E50A0E164
:102580001A0000EB05E0A0E10050B0E10D10A0E161
:102590000A30A0E10700C0E300D0A0E160D08DE2E6
:1025A00020402DE919F7FFEB2040BDE80060A0E3D3
:1025B0000070A0E30080A0E300B0A0E30710C1E337
:1025C00005C0A0E1C009ACE8C009ACE8C009ACE8AE
:1025D000C009ACE801D0A0E11EFF2FE110B5040056
:1025E000C046C0462000FDF709FE10BC08BC1847D5
:1025F00000009FE51EFF2FE14436004001C08FE23E
:102600001CFF2FE101491820ABDFFEE72600020086
:102610001EFF2FE17847C0460020B0E3203171E073
:1026200052FFFF3AA03271E047FFFF3A203471E0D9
:102630003CFFFF3A00C0A0E35BFFFFEA7847C046DB
:102640006C019FE5000090E500E090E564019FE5E6
:102650000200BEE8001080E50100BEE800F06FE176
:10266000FF7FDEE80000A0E13CE09EE504F05EE2D2
:10267000000000EF1EFF2FE104E08EE201002DE9D3
:1026800000204DE90000A0E104D04DE20100BDE8CA
:10269000004020E900E0A0E10100BDE8FF7F4EE935
:1026A0000000A0E13CE04EE200004FE101002EE915
:1026B00000019FE5000090E501002EE9F0009FE594
:1026C000001090E500E081E5EC009FE50FE0A0E15F
:1026D00010FF2FE1D8009FE5000090E500E090E5B5
:1026E000D0009FE50200BEE8001080E50100BEE8D2
:1026F00000F06FE1FF7FDEE80000A0E13CE09EE536
:1027000004F05EE201002DE900204DE90000A0E1A7
:1027100004D04DE20100BDE8004020E900E0A0E166
:102720000100BDE8FF7F4EE90000A0E13CE04EE281
:1027300000004FE101002EE978009FE5000090E5E0
:1027400001002EE968009FE5001090E500E081E5BA
:1027500068009FE50FE0A0E110FF2FE1000050E3CB
:102760000200000A50009FE50FE0A0E110FF2FE1FA
:102770000100A0E348109FE5000081E544009FE5CB
:10278000000080E528009FE5000090E500E090E56E
:1027900020009FE50200BEE8001080E50100BEE8D1
:1027A00000F06FE1FF7FDEE80000A0E13CE09EE585
:1027B00004F05EE288000040C00000409511000077
:1027C000ED0B0000004000E030F0FFFF7847C0460E
:1027D000A6FFFFEA084700007847C04600000FE167
:1027E000801080E301F021E1800000E21EFF2FE174
:1027F0007847C04600000FE18000C0E300F021E10F
:102800001EFF2FE17847C04601C05EE50C0053E192
:102810000100003A0C30DEE7000000EA0330DEE79A
:1028200083C08EE01CFF2FE148280000000000401C
:10283000DC0000004801000024290000DC0000400A
:10284000EC3B0000700100000000001000001100CF
:10285000001201001301001401001501001601000F
:102860001701001801001901001A01001B01001DC9
:1028700001001E01001F01011001011101011201DF
:1028800001130101140101150101160101170101D4
:102890001801011901011A01011B01011D01011E8D
:1028A00001011F011E0000000000000000000000E8
:1028B0000000000000000000000000000000000018
:1028C0000000000000000000000000000000000008
:1028D00000000000000000000000000000000000F8
:1028E00000000000000000000000000000000000E8
:1028F00000000000000000000000000000000000D8
:1029000000000000000000000F2700000000000091
:10291000000000000000000000000000F83300008C
:0429200000000000B3
:0400000500000104F2
:00000001FF
